{
  "address": "0xe7f1725E7734CE288F8367e1Bb143E90bb3F0512",
  "abi": [
    {
      "inputs": [],
      "name": "AboveMaximum",
      "type": "error"
    },
    {
      "inputs": [],
      "name": "AlreadyListed",
      "type": "error"
    },
    {
      "inputs": [],
      "name": "InvalidExpirationTime",
      "type": "error"
    },
    {
      "inputs": [],
      "name": "ListingExpired",
      "type": "error"
    },
    {
      "inputs": [],
      "name": "NotApproved",
      "type": "error"
    },
    {
      "inputs": [],
      "name": "NotEnoughEther",
      "type": "error"
    },
    {
      "inputs": [],
      "name": "NotOwner",
      "type": "error"
    },
    {
      "inputs": [],
      "name": "PriceCannotBeZero",
      "type": "error"
    },
    {
      "inputs": [],
      "name": "TransferFailed",
      "type": "error"
    },
    {
      "inputs": [],
      "name": "YouOwnThisItem",
      "type": "error"
    },
    {
      "anonymous": false,
      "inputs": [
        {
          "indexed": true,
          "internalType": "address",
          "name": "buyer",
          "type": "address"
        },
        {
          "indexed": true,
          "internalType": "address",
          "name": "nftAddress",
          "type": "address"
        },
        {
          "indexed": true,
          "internalType": "uint256",
          "name": "tokenId",
          "type": "uint256"
        },
        {
          "indexed": false,
          "internalType": "uint256",
          "name": "price",
          "type": "uint256"
        }
      ],
      "name": "ItemBought",
      "type": "event"
    },
    {
      "anonymous": false,
      "inputs": [
        {
          "indexed": true,
          "internalType": "address",
          "name": "seller",
          "type": "address"
        },
        {
          "indexed": true,
          "internalType": "address",
          "name": "nftAddress",
          "type": "address"
        },
        {
          "indexed": true,
          "internalType": "uint256",
          "name": "tokenId",
          "type": "uint256"
        }
      ],
      "name": "ItemCanceled",
      "type": "event"
    },
    {
      "anonymous": false,
      "inputs": [
        {
          "indexed": true,
          "internalType": "address",
          "name": "seller",
          "type": "address"
        },
        {
          "indexed": true,
          "internalType": "address",
          "name": "nftAddress",
          "type": "address"
        },
        {
          "indexed": true,
          "internalType": "uint256",
          "name": "tokenId",
          "type": "uint256"
        },
        {
          "indexed": false,
          "internalType": "uint256",
          "name": "price",
          "type": "uint256"
        }
      ],
      "name": "ItemListed",
      "type": "event"
    },
    {
      "anonymous": false,
      "inputs": [
        {
          "indexed": true,
          "internalType": "address",
          "name": "previousOwner",
          "type": "address"
        },
        {
          "indexed": true,
          "internalType": "address",
          "name": "newOwner",
          "type": "address"
        }
      ],
      "name": "OwnershipTransferred",
      "type": "event"
    },
    {
      "anonymous": false,
      "inputs": [
        {
          "indexed": true,
          "internalType": "address",
          "name": "seller",
          "type": "address"
        },
        {
          "indexed": true,
          "internalType": "address",
          "name": "nftAddress",
          "type": "address"
        },
        {
          "indexed": true,
          "internalType": "uint256",
          "name": "tokenId",
          "type": "uint256"
        },
        {
          "indexed": false,
          "internalType": "uint256",
          "name": "price",
          "type": "uint256"
        }
      ],
      "name": "UpdateListing",
      "type": "event"
    },
    {
      "inputs": [],
      "name": "COLLECTION_MAX_FEE",
      "outputs": [
        {
          "internalType": "uint256",
          "name": "",
          "type": "uint256"
        }
      ],
      "stateMutability": "view",
      "type": "function"
    },
    {
      "inputs": [],
      "name": "MARKETPLACE_MAX_FEE",
      "outputs": [
        {
          "internalType": "uint256",
          "name": "",
          "type": "uint256"
        }
      ],
      "stateMutability": "view",
      "type": "function"
    },
    {
      "inputs": [],
      "name": "MarketplaceFee",
      "outputs": [
        {
          "internalType": "uint256",
          "name": "",
          "type": "uint256"
        }
      ],
      "stateMutability": "view",
      "type": "function"
    },
    {
      "inputs": [],
      "name": "MarketplaceFeeCollector",
      "outputs": [
        {
          "internalType": "address",
          "name": "",
          "type": "address"
        }
      ],
      "stateMutability": "view",
      "type": "function"
    },
    {
      "inputs": [
        {
          "internalType": "address",
          "name": "nftAddress",
          "type": "address"
        },
        {
          "internalType": "uint256",
          "name": "tokenId",
          "type": "uint256"
        }
      ],
      "name": "buyItem",
      "outputs": [],
      "stateMutability": "payable",
      "type": "function"
    },
    {
      "inputs": [
        {
          "internalType": "address",
          "name": "nftAddres",
          "type": "address"
        },
        {
          "internalType": "uint256[]",
          "name": "tokenId",
          "type": "uint256[]"
        }
      ],
      "name": "buyManyItem",
      "outputs": [],
      "stateMutability": "nonpayable",
      "type": "function"
    },
    {
      "inputs": [
        {
          "internalType": "address",
          "name": "_nftAddress",
          "type": "address"
        },
        {
          "internalType": "uint256",
          "name": "_tokenId",
          "type": "uint256"
        }
      ],
      "name": "cancelListing",
      "outputs": [],
      "stateMutability": "nonpayable",
      "type": "function"
    },
    {
      "inputs": [
        {
          "internalType": "address",
          "name": "_nftAddress",
          "type": "address"
        },
        {
          "internalType": "uint256",
          "name": "_tokenId",
          "type": "uint256"
        },
        {
          "internalType": "uint256",
          "name": "_price",
          "type": "uint256"
        },
        {
          "internalType": "uint256",
          "name": "_expirationTime",
          "type": "uint256"
        }
      ],
      "name": "createListing",
      "outputs": [],
      "stateMutability": "nonpayable",
      "type": "function"
    },
    {
      "inputs": [],
      "name": "owner",
      "outputs": [
        {
          "internalType": "address",
          "name": "",
          "type": "address"
        }
      ],
      "stateMutability": "view",
      "type": "function"
    },
    {
      "inputs": [],
      "name": "renounceOwnership",
      "outputs": [],
      "stateMutability": "nonpayable",
      "type": "function"
    },
    {
      "inputs": [
        {
          "internalType": "address",
          "name": "nftAddress",
          "type": "address"
        },
        {
          "internalType": "uint256",
          "name": "_fee",
          "type": "uint256"
        },
        {
          "internalType": "address",
          "name": "_receipt",
          "type": "address"
        }
      ],
      "name": "setCollectionDetails",
      "outputs": [],
      "stateMutability": "nonpayable",
      "type": "function"
    },
    {
      "inputs": [
        {
          "internalType": "uint256",
          "name": "_marketplacefee",
          "type": "uint256"
        }
      ],
      "name": "setMarketplaceFee",
      "outputs": [],
      "stateMutability": "nonpayable",
      "type": "function"
    },
    {
      "inputs": [
        {
          "internalType": "address",
          "name": "account",
          "type": "address"
        }
      ],
      "name": "setMarketplaceFeeCollector",
      "outputs": [],
      "stateMutability": "nonpayable",
      "type": "function"
    },
    {
      "inputs": [
        {
          "internalType": "address",
          "name": "newOwner",
          "type": "address"
        }
      ],
      "name": "transferOwnership",
      "outputs": [],
      "stateMutability": "nonpayable",
      "type": "function"
    },
    {
      "inputs": [
        {
          "internalType": "address",
          "name": "_nftAddress",
          "type": "address"
        },
        {
          "internalType": "uint256",
          "name": "_tokenId",
          "type": "uint256"
        },
        {
          "internalType": "uint256",
          "name": "_price",
          "type": "uint256"
        },
        {
          "internalType": "uint256",
          "name": "_expirationTime",
          "type": "uint256"
        }
      ],
      "name": "updateListing",
      "outputs": [],
      "stateMutability": "nonpayable",
      "type": "function"
    }
  ],
  "transactionHash": "0x97d3b5f19e58e26d665f28263be32badac5bf7362323166754db1e6de1bef0ef",
  "args": [],
  "numDeployments": 1,
  "solcInputHash": "3a5472150be7bf3c943cb432c92c7013",
  "bytecode": "0x608060405234801561001057600080fd5b50600160008190555061003561002a61003a60201b60201c565b61004260201b60201c565b610108565b600033905090565b6000600160009054906101000a900473ffffffffffffffffffffffffffffffffffffffff16905081600160006101000a81548173ffffffffffffffffffffffffffffffffffffffff021916908373ffffffffffffffffffffffffffffffffffffffff1602179055508173ffffffffffffffffffffffffffffffffffffffff168173ffffffffffffffffffffffffffffffffffffffff167f8be0079c531659141344cd1fd0a4f28419497f9722a3daafe3b4186f6b6457e060405160405180910390a35050565b611e28806101176000396000f3fe6080604052600436106100e85760003560e01c8063715018a61161008a578063b2ddee0611610059578063b2ddee061461029b578063d9964757146102c4578063dcd9e0a1146102ed578063f2fde38b14610316576100e8565b8063715018a6146102145780638da5cb5b1461022b5780639407ea98146102565780639f37092a1461027f576100e8565b80633ef3a097116100c65780633ef3a0971461016e5780634061f2b8146101975780636ee96052146101c257806370cdec3d146101eb576100e8565b80630923b0b5146100ed5780630c1c244c146101185780632dea9e7314610143575b600080fd5b3480156100f957600080fd5b5061010261033f565b60405161010f919061177a565b60405180910390f35b34801561012457600080fd5b5061012d610345565b60405161013a919061177a565b60405180910390f35b34801561014f57600080fd5b5061015861034a565b60405161016591906117d6565b60405180910390f35b34801561017a57600080fd5b506101956004803603810190610190919061188c565b610370565b005b3480156101a357600080fd5b506101ac6103b2565b6040516101b9919061177a565b60405180910390f35b3480156101ce57600080fd5b506101e960048036038101906101e491906118ec565b6103b7565b005b3480156101f757600080fd5b50610212600480360381019061020d9190611945565b610403565b005b34801561022057600080fd5b506102296105de565b005b34801561023757600080fd5b506102406105f2565b60405161024d91906117d6565b60405180910390f35b34801561026257600080fd5b5061027d600480360381019061027891906119ac565b61061c565b005b610299600480360381019061029491906119d9565b610669565b005b3480156102a757600080fd5b506102c260048036038101906102bd91906119d9565b610aff565b005b3480156102d057600080fd5b506102eb60048036038101906102e69190611945565b610d2b565b005b3480156102f957600080fd5b50610314600480360381019061030f9190611a19565b610f05565b005b34801561032257600080fd5b5061033d600480360381019061033891906118ec565b61100b565b005b60025481565b600581565b600360009054906101000a900473ffffffffffffffffffffffffffffffffffffffff1681565b60005b828290508110156103ac576103a18484848481811061039557610394611a6c565b5b90506020020135610669565b806001019050610373565b50505050565b600c81565b6103bf61108f565b80600360006101000a81548173ffffffffffffffffffffffffffffffffffffffff021916908373ffffffffffffffffffffffffffffffffffffffff16021790555050565b83836000600460008473ffffffffffffffffffffffffffffffffffffffff1673ffffffffffffffffffffffffffffffffffffffff168152602001908152602001600020600083815260200190815260200160002060405180606001604052908160008201548152602001600182015481526020016002820160009054906101000a900473ffffffffffffffffffffffffffffffffffffffff1673ffffffffffffffffffffffffffffffffffffffff1673ffffffffffffffffffffffffffffffffffffffff1681525050905060008160000151111561050d576040517fa3d582ec00000000000000000000000000000000000000000000000000000000815260040160405180910390fd5b60026000541415610553576040517f08c379a000000000000000000000000000000000000000000000000000000000815260040161054a90611af8565b60405180910390fd5b60026000819055506105678787878761110d565b858773ffffffffffffffffffffffffffffffffffffffff163373ffffffffffffffffffffffffffffffffffffffff167fd547e933094f12a9159076970143ebe73234e64480317844b0dcb36117116de4886040516105c5919061177a565b60405180910390a4600160008190555050505050505050565b6105e661108f565b6105f06000611445565b565b6000600160009054906101000a900473ffffffffffffffffffffffffffffffffffffffff16905090565b61062461108f565b600581111561065f576040517f973f732300000000000000000000000000000000000000000000000000000000815260040160405180910390fd5b8060028190555050565b600260005414156106af576040517f08c379a00000000000000000000000000000000000000000000000000000000081526004016106a690611af8565b60405180910390fd5b600260008190555081816000600460008473ffffffffffffffffffffffffffffffffffffffff1673ffffffffffffffffffffffffffffffffffffffff168152602001908152602001600020600083815260200190815260200160002060405180606001604052908160008201548152602001600182015481526020016002820160009054906101000a900473ffffffffffffffffffffffffffffffffffffffff1673ffffffffffffffffffffffffffffffffffffffff1673ffffffffffffffffffffffffffffffffffffffff1681525050905060008160000151116107c0576040517fa3d582ec00000000000000000000000000000000000000000000000000000000815260040160405180910390fd5b6000600460008773ffffffffffffffffffffffffffffffffffffffff1673ffffffffffffffffffffffffffffffffffffffff168152602001908152602001600020600086815260200190815260200160002060405180606001604052908160008201548152602001600182015481526020016002820160009054906101000a900473ffffffffffffffffffffffffffffffffffffffff1673ffffffffffffffffffffffffffffffffffffffff1673ffffffffffffffffffffffffffffffffffffffff1681525050905060008160000151905060008260400151905060008890503373ffffffffffffffffffffffffffffffffffffffff168273ffffffffffffffffffffffffffffffffffffffff161415610906576040517f4474429800000000000000000000000000000000000000000000000000000000815260040160405180910390fd5b4284602001511015610944576040517f398cfd0200000000000000000000000000000000000000000000000000000000815260040160405180910390fd5b8234101561097e576040517f8a0d377900000000000000000000000000000000000000000000000000000000815260040160405180910390fd5b600460008a73ffffffffffffffffffffffffffffffffffffffff1673ffffffffffffffffffffffffffffffffffffffff168152602001908152602001600020600089815260200190815260200160002060008082016000905560018201600090556002820160006101000a81549073ffffffffffffffffffffffffffffffffffffffff02191690555050610a1389838561150b565b8073ffffffffffffffffffffffffffffffffffffffff166342842e0e8560400151338b6040518463ffffffff1660e01b8152600401610a5493929190611b18565b600060405180830381600087803b158015610a6e57600080fd5b505af1158015610a82573d6000803e3d6000fd5b50505050878973ffffffffffffffffffffffffffffffffffffffff168373ffffffffffffffffffffffffffffffffffffffff167fd547e933094f12a9159076970143ebe73234e64480317844b0dcb36117116de486604051610ae4919061177a565b60405180910390a45050505050505060016000819055505050565b60026000541415610b45576040517f08c379a0000000000000000000000000000000000000000000000000000000008152600401610b3c90611af8565b60405180910390fd5b60026000819055503373ffffffffffffffffffffffffffffffffffffffff168273ffffffffffffffffffffffffffffffffffffffff16636352211e836040518263ffffffff1660e01b8152600401610b9d919061177a565b60206040518083038186803b158015610bb557600080fd5b505afa158015610bc9573d6000803e3d6000fd5b505050506040513d601f19601f82011682018060405250810190610bed9190611b64565b73ffffffffffffffffffffffffffffffffffffffff1614610c3a576040517f30cd747100000000000000000000000000000000000000000000000000000000815260040160405180910390fd5b600460008373ffffffffffffffffffffffffffffffffffffffff1673ffffffffffffffffffffffffffffffffffffffff168152602001908152602001600020600082815260200190815260200160002060008082016000905560018201600090556002820160006101000a81549073ffffffffffffffffffffffffffffffffffffffff02191690555050808273ffffffffffffffffffffffffffffffffffffffff163373ffffffffffffffffffffffffffffffffffffffff167f9ba1a3cb55ce8d63d072a886f94d2a744f50cddf82128e897d0661f5ec62315860405160405180910390a460016000819055505050565b83836000600460008473ffffffffffffffffffffffffffffffffffffffff1673ffffffffffffffffffffffffffffffffffffffff168152602001908152602001600020600083815260200190815260200160002060405180606001604052908160008201548152602001600182015481526020016002820160009054906101000a900473ffffffffffffffffffffffffffffffffffffffff1673ffffffffffffffffffffffffffffffffffffffff1673ffffffffffffffffffffffffffffffffffffffff168152505090506000816000015111610e34576040517fa3d582ec00000000000000000000000000000000000000000000000000000000815260040160405180910390fd5b60026000541415610e7a576040517f08c379a0000000000000000000000000000000000000000000000000000000008152600401610e7190611af8565b60405180910390fd5b6002600081905550610e8e8787878761110d565b858773ffffffffffffffffffffffffffffffffffffffff163373ffffffffffffffffffffffffffffffffffffffff167f88a14f938c07a2afe2cc96e2b04a435b661cecc772d130fcc8f8070bee3d3b5488604051610eec919061177a565b60405180910390a4600160008190555050505050505050565b610f0d61108f565b600c821115610f48576040517f973f732300000000000000000000000000000000000000000000000000000000815260040160405180910390fd5b60405180604001604052808381526020018273ffffffffffffffffffffffffffffffffffffffff16815250600560008573ffffffffffffffffffffffffffffffffffffffff1673ffffffffffffffffffffffffffffffffffffffff1681526020019081526020016000206000820151816000015560208201518160010160006101000a81548173ffffffffffffffffffffffffffffffffffffffff021916908373ffffffffffffffffffffffffffffffffffffffff160217905550905050505050565b61101361108f565b600073ffffffffffffffffffffffffffffffffffffffff168173ffffffffffffffffffffffffffffffffffffffff161415611083576040517f08c379a000000000000000000000000000000000000000000000000000000000815260040161107a90611c03565b60405180910390fd5b61108c81611445565b50565b6110976116b1565b73ffffffffffffffffffffffffffffffffffffffff166110b56105f2565b73ffffffffffffffffffffffffffffffffffffffff161461110b576040517f08c379a000000000000000000000000000000000000000000000000000000000815260040161110290611c6f565b60405180910390fd5b565b428111611146576040517f08e8b93700000000000000000000000000000000000000000000000000000000815260040160405180910390fd5b60008211611180576040517f2c669f0a00000000000000000000000000000000000000000000000000000000815260040160405180910390fd5b60008490503373ffffffffffffffffffffffffffffffffffffffff168173ffffffffffffffffffffffffffffffffffffffff16636352211e866040518263ffffffff1660e01b81526004016111d5919061177a565b60206040518083038186803b1580156111ed57600080fd5b505afa158015611201573d6000803e3d6000fd5b505050506040513d601f19601f820116820180604052508101906112259190611b64565b73ffffffffffffffffffffffffffffffffffffffff1614611272576040517f30cd747100000000000000000000000000000000000000000000000000000000815260040160405180910390fd5b3073ffffffffffffffffffffffffffffffffffffffff168173ffffffffffffffffffffffffffffffffffffffff1663081812fc866040518263ffffffff1660e01b81526004016112c2919061177a565b60206040518083038186803b1580156112da57600080fd5b505afa1580156112ee573d6000803e3d6000fd5b505050506040513d601f19601f820116820180604052508101906113129190611b64565b73ffffffffffffffffffffffffffffffffffffffff161461135f576040517fc19f17a900000000000000000000000000000000000000000000000000000000815260040160405180910390fd5b60405180606001604052808481526020018381526020013373ffffffffffffffffffffffffffffffffffffffff16815250600460008773ffffffffffffffffffffffffffffffffffffffff1673ffffffffffffffffffffffffffffffffffffffff1681526020019081526020016000206000868152602001908152602001600020600082015181600001556020820151816001015560408201518160020160006101000a81548173ffffffffffffffffffffffffffffffffffffffff021916908373ffffffffffffffffffffffffffffffffffffffff1602179055509050505050505050565b6000600160009054906101000a900473ffffffffffffffffffffffffffffffffffffffff16905081600160006101000a81548173ffffffffffffffffffffffffffffffffffffffff021916908373ffffffffffffffffffffffffffffffffffffffff1602179055508173ffffffffffffffffffffffffffffffffffffffff168173ffffffffffffffffffffffffffffffffffffffff167f8be0079c531659141344cd1fd0a4f28419497f9722a3daafe3b4186f6b6457e060405160405180910390a35050565b6000600560008573ffffffffffffffffffffffffffffffffffffffff1673ffffffffffffffffffffffffffffffffffffffff168152602001908152602001600020604051806040016040529081600082015481526020016001820160009054906101000a900473ffffffffffffffffffffffffffffffffffffffff1673ffffffffffffffffffffffffffffffffffffffff1673ffffffffffffffffffffffffffffffffffffffff16815250509050600080600073ffffffffffffffffffffffffffffffffffffffff16836020015173ffffffffffffffffffffffffffffffffffffffff16146116055782600001519150600254905061160f565b6000915060025490505b60006064858461161f9190611cbe565b6116299190611d47565b905060006064868461163b9190611cbe565b6116459190611d47565b905060008183886116569190611d78565b6116609190611d78565b90506116708660200151846116b9565b61169c600360009054906101000a900473ffffffffffffffffffffffffffffffffffffffff16836116b9565b6116a688826116b9565b505050505050505050565b600033905090565b60008273ffffffffffffffffffffffffffffffffffffffff16826040516116df90611ddd565b60006040518083038185875af1925050503d806000811461171c576040519150601f19603f3d011682016040523d82523d6000602084013e611721565b606091505b505090508061175c576040517f90b8ec1800000000000000000000000000000000000000000000000000000000815260040160405180910390fd5b505050565b6000819050919050565b61177481611761565b82525050565b600060208201905061178f600083018461176b565b92915050565b600073ffffffffffffffffffffffffffffffffffffffff82169050919050565b60006117c082611795565b9050919050565b6117d0816117b5565b82525050565b60006020820190506117eb60008301846117c7565b92915050565b600080fd5b600080fd5b611804816117b5565b811461180f57600080fd5b50565b600081359050611821816117fb565b92915050565b600080fd5b600080fd5b600080fd5b60008083601f84011261184c5761184b611827565b5b8235905067ffffffffffffffff8111156118695761186861182c565b5b60208301915083602082028301111561188557611884611831565b5b9250929050565b6000806000604084860312156118a5576118a46117f1565b5b60006118b386828701611812565b935050602084013567ffffffffffffffff8111156118d4576118d36117f6565b5b6118e086828701611836565b92509250509250925092565b600060208284031215611902576119016117f1565b5b600061191084828501611812565b91505092915050565b61192281611761565b811461192d57600080fd5b50565b60008135905061193f81611919565b92915050565b6000806000806080858703121561195f5761195e6117f1565b5b600061196d87828801611812565b945050602061197e87828801611930565b935050604061198f87828801611930565b92505060606119a087828801611930565b91505092959194509250565b6000602082840312156119c2576119c16117f1565b5b60006119d084828501611930565b91505092915050565b600080604083850312156119f0576119ef6117f1565b5b60006119fe85828601611812565b9250506020611a0f85828601611930565b9150509250929050565b600080600060608486031215611a3257611a316117f1565b5b6000611a4086828701611812565b9350506020611a5186828701611930565b9250506040611a6286828701611812565b9150509250925092565b7f4e487b7100000000000000000000000000000000000000000000000000000000600052603260045260246000fd5b600082825260208201905092915050565b7f5265656e7472616e637947756172643a207265656e7472616e742063616c6c00600082015250565b6000611ae2601f83611a9b565b9150611aed82611aac565b602082019050919050565b60006020820190508181036000830152611b1181611ad5565b9050919050565b6000606082019050611b2d60008301866117c7565b611b3a60208301856117c7565b611b47604083018461176b565b949350505050565b600081519050611b5e816117fb565b92915050565b600060208284031215611b7a57611b796117f1565b5b6000611b8884828501611b4f565b91505092915050565b7f4f776e61626c653a206e6577206f776e657220697320746865207a65726f206160008201527f6464726573730000000000000000000000000000000000000000000000000000602082015250565b6000611bed602683611a9b565b9150611bf882611b91565b604082019050919050565b60006020820190508181036000830152611c1c81611be0565b9050919050565b7f4f776e61626c653a2063616c6c6572206973206e6f7420746865206f776e6572600082015250565b6000611c59602083611a9b565b9150611c6482611c23565b602082019050919050565b60006020820190508181036000830152611c8881611c4c565b9050919050565b7f4e487b7100000000000000000000000000000000000000000000000000000000600052601160045260246000fd5b6000611cc982611761565b9150611cd483611761565b9250817fffffffffffffffffffffffffffffffffffffffffffffffffffffffffffffffff0483118215151615611d0d57611d0c611c8f565b5b828202905092915050565b7f4e487b7100000000000000000000000000000000000000000000000000000000600052601260045260246000fd5b6000611d5282611761565b9150611d5d83611761565b925082611d6d57611d6c611d18565b5b828204905092915050565b6000611d8382611761565b9150611d8e83611761565b925082821015611da157611da0611c8f565b5b828203905092915050565b600081905092915050565b50565b6000611dc7600083611dac565b9150611dd282611db7565b600082019050919050565b6000611de882611dba565b915081905091905056fea264697066735822122007bad785937b7f5607f1fba083affb21e313b72640cabf414668fc926ed15abc64736f6c63430008090033",
  "devdoc": {
    "kind": "dev",
    "methods": {
      "owner()": {
        "details": "Returns the address of the current owner."
      },
      "renounceOwnership()": {
        "details": "Leaves the contract without owner. It will not be possible to call `onlyOwner` functions anymore. Can only be called by the current owner. NOTE: Renouncing ownership will leave the contract without an owner, thereby removing any functionality that is only available to the owner."
      },
      "transferOwnership(address)": {
        "details": "Transfers ownership of the contract to a new account (`newOwner`). Can only be called by the current owner."
      }
    },
    "version": 1
  },
  "userdoc": {
    "events": {
      "ItemListed(address,address,uint256,uint256)": {
        "notice": "================EVENTS================///"
      }
    },
    "kind": "user",
    "methods": {},
    "version": 1
  },
  "storageLayout": {
    "storage": [
      {
        "astId": 123,
        "contract": "contracts/NftMarketplace.sol:NftMarketplace",
        "label": "_status",
        "offset": 0,
        "slot": "0",
        "type": "t_uint256"
      },
      {
        "astId": 7,
        "contract": "contracts/NftMarketplace.sol:NftMarketplace",
        "label": "_owner",
        "offset": 0,
        "slot": "1",
        "type": "t_address"
      },
      {
        "astId": 1790,
        "contract": "contracts/NftMarketplace.sol:NftMarketplace",
        "label": "MarketplaceFee",
        "offset": 0,
        "slot": "2",
        "type": "t_uint256"
      },
      {
        "astId": 1792,
        "contract": "contracts/NftMarketplace.sol:NftMarketplace",
        "label": "MarketplaceFeeCollector",
        "offset": 0,
        "slot": "3",
        "type": "t_address"
      },
      {
        "astId": 1817,
        "contract": "contracts/NftMarketplace.sol:NftMarketplace",
        "label": "listing",
        "offset": 0,
        "slot": "4",
        "type": "t_mapping(t_address,t_mapping(t_uint256,t_struct(ListingItem)1805_storage))"
      },
      {
        "astId": 1822,
        "contract": "contracts/NftMarketplace.sol:NftMarketplace",
        "label": "_collection",
        "offset": 0,
        "slot": "5",
        "type": "t_mapping(t_address,t_struct(CollectionOwnerFee)1810_storage)"
      }
    ],
    "types": {
      "t_address": {
        "encoding": "inplace",
        "label": "address",
        "numberOfBytes": "20"
      },
      "t_mapping(t_address,t_mapping(t_uint256,t_struct(ListingItem)1805_storage))": {
        "encoding": "mapping",
        "key": "t_address",
        "label": "mapping(address => mapping(uint256 => struct NftMarketplace.ListingItem))",
        "numberOfBytes": "32",
        "value": "t_mapping(t_uint256,t_struct(ListingItem)1805_storage)"
      },
      "t_mapping(t_address,t_struct(CollectionOwnerFee)1810_storage)": {
        "encoding": "mapping",
        "key": "t_address",
        "label": "mapping(address => struct NftMarketplace.CollectionOwnerFee)",
        "numberOfBytes": "32",
        "value": "t_struct(CollectionOwnerFee)1810_storage"
      },
      "t_mapping(t_uint256,t_struct(ListingItem)1805_storage)": {
        "encoding": "mapping",
        "key": "t_uint256",
        "label": "mapping(uint256 => struct NftMarketplace.ListingItem)",
        "numberOfBytes": "32",
        "value": "t_struct(ListingItem)1805_storage"
      },
      "t_struct(CollectionOwnerFee)1810_storage": {
        "encoding": "inplace",
        "label": "struct NftMarketplace.CollectionOwnerFee",
        "members": [
          {
            "astId": 1807,
            "contract": "contracts/NftMarketplace.sol:NftMarketplace",
            "label": "fee",
            "offset": 0,
            "slot": "0",
            "type": "t_uint256"
          },
          {
            "astId": 1809,
            "contract": "contracts/NftMarketplace.sol:NftMarketplace",
            "label": "receipt",
            "offset": 0,
            "slot": "1",
            "type": "t_address"
          }
        ],
        "numberOfBytes": "64"
      },
      "t_struct(ListingItem)1805_storage": {
        "encoding": "inplace",
        "label": "struct NftMarketplace.ListingItem",
        "members": [
          {
            "astId": 1800,
            "contract": "contracts/NftMarketplace.sol:NftMarketplace",
            "label": "price",
            "offset": 0,
            "slot": "0",
            "type": "t_uint256"
          },
          {
            "astId": 1802,
            "contract": "contracts/NftMarketplace.sol:NftMarketplace",
            "label": "expirationTime",
            "offset": 0,
            "slot": "1",
            "type": "t_uint256"
          },
          {
            "astId": 1804,
            "contract": "contracts/NftMarketplace.sol:NftMarketplace",
            "label": "seller",
            "offset": 0,
            "slot": "2",
            "type": "t_address"
          }
        ],
        "numberOfBytes": "96"
      },
      "t_uint256": {
        "encoding": "inplace",
        "label": "uint256",
        "numberOfBytes": "32"
      }
    }
  }
}